{
  "contractName": "DogsV2",
  "abi": [
    {
      "anonymous": false,
      "inputs": [
        {
          "indexed": false,
          "internalType": "uint256",
          "name": "number",
          "type": "uint256"
        }
      ],
      "name": "showNumberOfDogs",
      "type": "event"
    },
    {
      "inputs": [],
      "name": "getNumberOfDogs",
      "outputs": [
        {
          "internalType": "uint256",
          "name": "",
          "type": "uint256"
        }
      ],
      "stateMutability": "nonpayable",
      "type": "function"
    },
    {
      "inputs": [
        {
          "internalType": "uint256",
          "name": "toSet",
          "type": "uint256"
        }
      ],
      "name": "setNumberOfDogs",
      "outputs": [],
      "stateMutability": "nonpayable",
      "type": "function"
    }
  ],
  "bytecode": "0x608060405234801561001057600080fd5b5061016b806100206000396000f3fe608060405234801561001057600080fd5b50600436106100365760003560e01c806314861b221461003b5780631680a5ed14610057575b600080fd5b610055600480360381019061005091906100de565b610075565b005b61005f610081565b60405161006c919061011a565b60405180910390f35b61007e81610090565b50565b600061008b61009a565b905090565b8060008190555050565b60008054905090565b600080fd5b6000819050919050565b6100bb816100a8565b81146100c657600080fd5b50565b6000813590506100d8816100b2565b92915050565b6000602082840312156100f4576100f36100a3565b5b6000610102848285016100c9565b91505092915050565b610114816100a8565b82525050565b600060208201905061012f600083018461010b565b9291505056fea26469706673582212208b51c0b16c61a1085241b22257f26aae1c47f01b44ba296ae0ec0966e78fc6b264736f6c634300080a0033",
  "immutableReferences": {},
  "source": "pragma solidity ^0.8.0;\n\nimport \"./StorageContract.sol\";\ncontract Dogs is Storage{\n    event showNumberOfDogs(uint256 number);\n    function getNumberOfDogs() public view returns(uint256) {\n        return Storage.getNumber();\n    }\n    \n    function setNumberOfDogs(uint256 toSet) public {\n        Storage.setNumber(toSet+1);\n    }\n}\n\ncontract DogsV2 is Storage {\n  \n    event showNumberOfDogs(uint256 number);\n    function getNumberOfDogs() public  returns(uint256) {\n        return Storage.getNumber();\n    }\n    \n    function setNumberOfDogs(uint256 toSet) public {\n        Storage.setNumber(toSet);\n    }\n\n}",
  "sourcePath": "/home/matt/Documents/BasicUpgradableContract/contracts/FunctionalContractv1.sol",
  "compiler": {
    "name": "solc",
    "version": "0.8.10+commit.fc410830.Emscripten.clang"
  },
  "schemaVersion": "3.4.3",
  "updatedAt": "2021-12-03T08:03:56.705Z",
  "networkType": "ethereum",
  "devdoc": {
    "kind": "dev",
    "methods": {},
    "version": 1
  },
  "userdoc": {
    "kind": "user",
    "methods": {},
    "version": 1
  }
}