{
  "contractName": "proxyDog",
  "abi": [
    {
      "inputs": [
        {
          "internalType": "address",
          "name": "_currentAddress",
          "type": "address"
        }
      ],
      "stateMutability": "nonpayable",
      "type": "constructor"
    },
    {
      "anonymous": false,
      "inputs": [
        {
          "indexed": true,
          "internalType": "address",
          "name": "previousOwner",
          "type": "address"
        },
        {
          "indexed": true,
          "internalType": "address",
          "name": "newOwner",
          "type": "address"
        }
      ],
      "name": "OwnershipTransferred",
      "type": "event"
    },
    {
      "inputs": [],
      "name": "currentAddress",
      "outputs": [
        {
          "internalType": "address",
          "name": "",
          "type": "address"
        }
      ],
      "stateMutability": "view",
      "type": "function",
      "constant": true
    },
    {
      "inputs": [],
      "name": "owner",
      "outputs": [
        {
          "internalType": "address",
          "name": "",
          "type": "address"
        }
      ],
      "stateMutability": "view",
      "type": "function",
      "constant": true
    },
    {
      "inputs": [],
      "name": "renounceOwnership",
      "outputs": [],
      "stateMutability": "nonpayable",
      "type": "function"
    },
    {
      "inputs": [
        {
          "internalType": "address",
          "name": "newOwner",
          "type": "address"
        }
      ],
      "name": "transferOwnership",
      "outputs": [],
      "stateMutability": "nonpayable",
      "type": "function"
    },
    {
      "inputs": [
        {
          "internalType": "address",
          "name": "_currentAddress",
          "type": "address"
        }
      ],
      "name": "upgradeContract",
      "outputs": [],
      "stateMutability": "nonpayable",
      "type": "function"
    },
    {
      "inputs": [],
      "name": "getNumberOfDogs",
      "outputs": [
        {
          "internalType": "bool",
          "name": "",
          "type": "bool"
        },
        {
          "internalType": "bytes",
          "name": "",
          "type": "bytes"
        }
      ],
      "stateMutability": "nonpayable",
      "type": "function"
    },
    {
      "inputs": [
        {
          "internalType": "uint256",
          "name": "_number",
          "type": "uint256"
        }
      ],
      "name": "setNumberOfDogs",
      "outputs": [
        {
          "internalType": "bool",
          "name": "",
          "type": "bool"
        },
        {
          "internalType": "bytes",
          "name": "",
          "type": "bytes"
        }
      ],
      "stateMutability": "nonpayable",
      "type": "function"
    },
    {
      "inputs": [],
      "name": "getCurrentAddress",
      "outputs": [
        {
          "internalType": "address",
          "name": "",
          "type": "address"
        }
      ],
      "stateMutability": "view",
      "type": "function",
      "constant": true
    }
  ],
  "bytecode": "0x608060405234801561001057600080fd5b50604051610d10380380610d10833981810160405281019061003291906101c6565b61004e61004361009560201b60201c565b61009d60201b60201c565b80600260006101000a81548173ffffffffffffffffffffffffffffffffffffffff021916908373ffffffffffffffffffffffffffffffffffffffff160217905550506101f3565b600033905090565b6000600160009054906101000a900473ffffffffffffffffffffffffffffffffffffffff16905081600160006101000a81548173ffffffffffffffffffffffffffffffffffffffff021916908373ffffffffffffffffffffffffffffffffffffffff1602179055508173ffffffffffffffffffffffffffffffffffffffff168173ffffffffffffffffffffffffffffffffffffffff167f8be0079c531659141344cd1fd0a4f28419497f9722a3daafe3b4186f6b6457e060405160405180910390a35050565b600080fd5b600073ffffffffffffffffffffffffffffffffffffffff82169050919050565b600061019382610168565b9050919050565b6101a381610188565b81146101ae57600080fd5b50565b6000815190506101c08161019a565b92915050565b6000602082840312156101dc576101db610163565b5b60006101ea848285016101b1565b91505092915050565b610b0e806102026000396000f3fe608060405234801561001057600080fd5b50600436106100885760003560e01c80638da5cb5b1161005b5780638da5cb5b14610105578063e717ea6114610123578063eb2c022314610141578063f2fde38b1461015d57610088565b806314861b221461008d5780631680a5ed146100be578063715018a6146100dd57806381bf4718146100e7575b600080fd5b6100a760048036038101906100a291906106fb565b610179565b6040516100b59291906107dc565b60405180910390f35b6100c661025a565b6040516100d49291906107dc565b60405180910390f35b6100e5610338565b005b6100ef6103c0565b6040516100fc919061084d565b60405180910390f35b61010d6103e6565b60405161011a919061084d565b60405180910390f35b61012b610410565b604051610138919061084d565b60405180910390f35b61015b60048036038101906101569190610894565b61043a565b005b61017760048036038101906101729190610894565b6104fa565b005b60006060600080600260009054906101000a900473ffffffffffffffffffffffffffffffffffffffff1673ffffffffffffffffffffffffffffffffffffffff167f14861b22581b84cb0aec7ce6ad77d28cfaa82fbfcf1d33e2f9a831f8007b3b15866040516020016101ec92919061092f565b6040516020818303038152906040526040516102089190610997565b600060405180830381855af49150503d8060008114610243576040519150601f19603f3d011682016040523d82523d6000602084013e610248565b606091505b50915091508181935093505050915091565b60006060600080600260009054906101000a900473ffffffffffffffffffffffffffffffffffffffff1673ffffffffffffffffffffffffffffffffffffffff167f1680a5eda8da808a7834a50d90bd4c37dac796549ddc8f10834a1ca6f083c2e16040516020016102cb91906109ae565b6040516020818303038152906040526040516102e79190610997565b600060405180830381855af49150503d8060008114610322576040519150601f19603f3d011682016040523d82523d6000602084013e610327565b606091505b509150915081819350935050509091565b6103406105f2565b73ffffffffffffffffffffffffffffffffffffffff1661035e6103e6565b73ffffffffffffffffffffffffffffffffffffffff16146103b4576040517f08c379a00000000000000000000000000000000000000000000000000000000081526004016103ab90610a26565b60405180910390fd5b6103be60006105fa565b565b600260009054906101000a900473ffffffffffffffffffffffffffffffffffffffff1681565b6000600160009054906101000a900473ffffffffffffffffffffffffffffffffffffffff16905090565b6000600260009054906101000a900473ffffffffffffffffffffffffffffffffffffffff16905090565b6104426105f2565b73ffffffffffffffffffffffffffffffffffffffff166104606103e6565b73ffffffffffffffffffffffffffffffffffffffff16146104b6576040517f08c379a00000000000000000000000000000000000000000000000000000000081526004016104ad90610a26565b60405180910390fd5b80600260006101000a81548173ffffffffffffffffffffffffffffffffffffffff021916908373ffffffffffffffffffffffffffffffffffffffff16021790555050565b6105026105f2565b73ffffffffffffffffffffffffffffffffffffffff166105206103e6565b73ffffffffffffffffffffffffffffffffffffffff1614610576576040517f08c379a000000000000000000000000000000000000000000000000000000000815260040161056d90610a26565b60405180910390fd5b600073ffffffffffffffffffffffffffffffffffffffff168173ffffffffffffffffffffffffffffffffffffffff1614156105e6576040517f08c379a00000000000000000000000000000000000000000000000000000000081526004016105dd90610ab8565b60405180910390fd5b6105ef816105fa565b50565b600033905090565b6000600160009054906101000a900473ffffffffffffffffffffffffffffffffffffffff16905081600160006101000a81548173ffffffffffffffffffffffffffffffffffffffff021916908373ffffffffffffffffffffffffffffffffffffffff1602179055508173ffffffffffffffffffffffffffffffffffffffff168173ffffffffffffffffffffffffffffffffffffffff167f8be0079c531659141344cd1fd0a4f28419497f9722a3daafe3b4186f6b6457e060405160405180910390a35050565b600080fd5b6000819050919050565b6106d8816106c5565b81146106e357600080fd5b50565b6000813590506106f5816106cf565b92915050565b600060208284031215610711576107106106c0565b5b600061071f848285016106e6565b91505092915050565b60008115159050919050565b61073d81610728565b82525050565b600081519050919050565b600082825260208201905092915050565b60005b8381101561077d578082015181840152602081019050610762565b8381111561078c576000848401525b50505050565b6000601f19601f8301169050919050565b60006107ae82610743565b6107b8818561074e565b93506107c881856020860161075f565b6107d181610792565b840191505092915050565b60006040820190506107f16000830185610734565b818103602083015261080381846107a3565b90509392505050565b600073ffffffffffffffffffffffffffffffffffffffff82169050919050565b60006108378261080c565b9050919050565b6108478161082c565b82525050565b6000602082019050610862600083018461083e565b92915050565b6108718161082c565b811461087c57600080fd5b50565b60008135905061088e81610868565b92915050565b6000602082840312156108aa576108a96106c0565b5b60006108b88482850161087f565b91505092915050565b60007fffffffff0000000000000000000000000000000000000000000000000000000082169050919050565b6000819050919050565b610908610903826108c1565b6108ed565b82525050565b6000819050919050565b610929610924826106c5565b61090e565b82525050565b600061093b82856108f7565b60048201915061094b8284610918565b6020820191508190509392505050565b600081905092915050565b600061097182610743565b61097b818561095b565b935061098b81856020860161075f565b80840191505092915050565b60006109a38284610966565b915081905092915050565b60006109ba82846108f7565b60048201915081905092915050565b600082825260208201905092915050565b7f4f776e61626c653a2063616c6c6572206973206e6f7420746865206f776e6572600082015250565b6000610a106020836109c9565b9150610a1b826109da565b602082019050919050565b60006020820190508181036000830152610a3f81610a03565b9050919050565b7f4f776e61626c653a206e6577206f776e657220697320746865207a65726f206160008201527f6464726573730000000000000000000000000000000000000000000000000000602082015250565b6000610aa26026836109c9565b9150610aad82610a46565b604082019050919050565b60006020820190508181036000830152610ad181610a95565b905091905056fea2646970667358221220169b75e925859945a25b4a4733b6b3d2797563fcf632128e3646cf861c0a5a6e64736f6c634300080a0033",
  "immutableReferences": {},
  "source": "pragma solidity ^0.8.0;\n\nimport \"./StorageContract.sol\";\nimport \"@openzeppelin/contracts/access/Ownable.sol\";\ncontract proxyDog is Storage,Ownable {\n    address public currentAddress;\n\n    constructor(address _currentAddress) {\n        currentAddress = _currentAddress;\n    }\n\n    function upgradeContract(address _currentAddress) public onlyOwner {\n        currentAddress = _currentAddress;\n    }\n\n    function getNumberOfDogs() public returns (bool ,bytes memory) {\n        (bool res, bytes memory data) = currentAddress.delegatecall(abi.encodePacked(bytes4(keccak256(\"getNumberOfDogs()\")))); //calls getNumberOfDogs in the contract at currentAddress\n        return (res,data);\n    }\n\n    function setNumberOfDogs(uint256 _number) public returns (bool ,bytes memory) {\n        (bool res, bytes memory data) = currentAddress.delegatecall(abi.encodePacked(bytes4(keccak256(\"setNumberOfDogs(uint256)\")), _number)); //calls setNumberOfDogs in the contract at currentAddress\n        return (res,data);\n    }\n\n    function getCurrentAddress () public view returns (address){\n        return currentAddress;\n    }\n}",
  "sourcePath": "/home/matt/Documents/BasicUpgradableContract/contracts/ProxyContract.sol",
  "compiler": {
    "name": "solc",
    "version": "0.8.10+commit.fc410830.Emscripten.clang"
  },
  "schemaVersion": "3.4.3",
  "updatedAt": "2021-12-03T08:03:56.727Z",
  "networkType": "ethereum",
  "devdoc": {
    "kind": "dev",
    "methods": {
      "owner()": {
        "details": "Returns the address of the current owner."
      },
      "renounceOwnership()": {
        "details": "Leaves the contract without owner. It will not be possible to call `onlyOwner` functions anymore. Can only be called by the current owner. NOTE: Renouncing ownership will leave the contract without an owner, thereby removing any functionality that is only available to the owner."
      },
      "transferOwnership(address)": {
        "details": "Transfers ownership of the contract to a new account (`newOwner`). Can only be called by the current owner."
      }
    },
    "version": 1
  },
  "userdoc": {
    "kind": "user",
    "methods": {},
    "version": 1
  }
}